{
  "_format": "hh-sol-artifact-1",
  "contractName": "MetaSum",
  "sourceName": "contracts/MetaSum.sol",
  "abi": [
    {
      "inputs": [
        {
          "internalType": "contract ERC2771Forwarder",
          "name": "forwarder",
          "type": "address"
        }
      ],
      "stateMutability": "nonpayable",
      "type": "constructor"
    },
    {
      "inputs": [
        {
          "internalType": "uint256",
          "name": "_a",
          "type": "uint256"
        }
      ],
      "name": "add",
      "outputs": [],
      "stateMutability": "nonpayable",
      "type": "function"
    },
    {
      "inputs": [
        {
          "internalType": "address",
          "name": "forwarder",
          "type": "address"
        }
      ],
      "name": "isTrustedForwarder",
      "outputs": [
        {
          "internalType": "bool",
          "name": "",
          "type": "bool"
        }
      ],
      "stateMutability": "view",
      "type": "function"
    },
    {
      "inputs": [],
      "name": "sum",
      "outputs": [
        {
          "internalType": "uint256",
          "name": "",
          "type": "uint256"
        }
      ],
      "stateMutability": "view",
      "type": "function"
    },
    {
      "inputs": [],
      "name": "trustedForwarder",
      "outputs": [
        {
          "internalType": "address",
          "name": "",
          "type": "address"
        }
      ],
      "stateMutability": "view",
      "type": "function"
    }
  ],
  "bytecode": "0x60a060405234801561001057600080fd5b5060405161042e38038061042e833981810160405281019061003291906100e3565b808073ffffffffffffffffffffffffffffffffffffffff1660808173ffffffffffffffffffffffffffffffffffffffff16815250505050610110565b600080fd5b600073ffffffffffffffffffffffffffffffffffffffff82169050919050565b600061009e82610073565b9050919050565b60006100b082610093565b9050919050565b6100c0816100a5565b81146100cb57600080fd5b50565b6000815190506100dd816100b7565b92915050565b6000602082840312156100f9576100f861006e565b5b6000610107848285016100ce565b91505092915050565b60805161030361012b600039600061012601526103036000f3fe608060405234801561001057600080fd5b506004361061004c5760003560e01c80631003e2d214610051578063572b6c051461006d5780637da0a8771461009d578063853255cc146100bb575b600080fd5b61006b6004803603810190610066919061018b565b6100d9565b005b61008760048036038101906100829190610216565b6100e3565b604051610094919061025e565b60405180910390f35b6100a5610122565b6040516100b29190610288565b60405180910390f35b6100c361014a565b6040516100d091906102b2565b60405180910390f35b8060008190555050565b60006100ed610122565b73ffffffffffffffffffffffffffffffffffffffff168273ffffffffffffffffffffffffffffffffffffffff16149050919050565b60007f0000000000000000000000000000000000000000000000000000000000000000905090565b60005481565b600080fd5b6000819050919050565b61016881610155565b811461017357600080fd5b50565b6000813590506101858161015f565b92915050565b6000602082840312156101a1576101a0610150565b5b60006101af84828501610176565b91505092915050565b600073ffffffffffffffffffffffffffffffffffffffff82169050919050565b60006101e3826101b8565b9050919050565b6101f3816101d8565b81146101fe57600080fd5b50565b600081359050610210816101ea565b92915050565b60006020828403121561022c5761022b610150565b5b600061023a84828501610201565b91505092915050565b60008115159050919050565b61025881610243565b82525050565b6000602082019050610273600083018461024f565b92915050565b610282816101d8565b82525050565b600060208201905061029d6000830184610279565b92915050565b6102ac81610155565b82525050565b60006020820190506102c760008301846102a3565b9291505056fea2646970667358221220e76457ac0ca4e2deb8e05668e4875484898d3995123cbe15a1fb5fb1945ae4c164736f6c63430008140033",
  "linkReferences": {},
  "deployedLinkReferences": {}
}